{
  "_format": "hh-sol-artifact-1",
  "contractName": "Web3Mint",
  "sourceName": "contracts/Web3Mint.sol",
  "abi": [
    {
      "inputs": [],
      "stateMutability": "nonpayable",
      "type": "constructor"
    },
    {
      "anonymous": false,
      "inputs": [
        {
          "indexed": true,
          "internalType": "address",
          "name": "owner",
          "type": "address"
        },
        {
          "indexed": true,
          "internalType": "address",
          "name": "approved",
          "type": "address"
        },
        {
          "indexed": true,
          "internalType": "uint256",
          "name": "tokenId",
          "type": "uint256"
        }
      ],
      "name": "Approval",
      "type": "event"
    },
    {
      "anonymous": false,
      "inputs": [
        {
          "indexed": true,
          "internalType": "address",
          "name": "owner",
          "type": "address"
        },
        {
          "indexed": true,
          "internalType": "address",
          "name": "operator",
          "type": "address"
        },
        {
          "indexed": false,
          "internalType": "bool",
          "name": "approved",
          "type": "bool"
        }
      ],
      "name": "ApprovalForAll",
      "type": "event"
    },
    {
      "anonymous": false,
      "inputs": [
        {
          "indexed": true,
          "internalType": "address",
          "name": "from",
          "type": "address"
        },
        {
          "indexed": true,
          "internalType": "address",
          "name": "to",
          "type": "address"
        },
        {
          "indexed": true,
          "internalType": "uint256",
          "name": "tokenId",
          "type": "uint256"
        }
      ],
      "name": "Transfer",
      "type": "event"
    },
    {
      "inputs": [
        {
          "internalType": "address",
          "name": "to",
          "type": "address"
        },
        {
          "internalType": "uint256",
          "name": "tokenId",
          "type": "uint256"
        }
      ],
      "name": "approve",
      "outputs": [],
      "stateMutability": "nonpayable",
      "type": "function"
    },
    {
      "inputs": [
        {
          "internalType": "address",
          "name": "owner",
          "type": "address"
        }
      ],
      "name": "balanceOf",
      "outputs": [
        {
          "internalType": "uint256",
          "name": "",
          "type": "uint256"
        }
      ],
      "stateMutability": "view",
      "type": "function"
    },
    {
      "inputs": [
        {
          "internalType": "uint256",
          "name": "tokenId",
          "type": "uint256"
        }
      ],
      "name": "getApproved",
      "outputs": [
        {
          "internalType": "address",
          "name": "",
          "type": "address"
        }
      ],
      "stateMutability": "view",
      "type": "function"
    },
    {
      "inputs": [
        {
          "internalType": "address",
          "name": "owner",
          "type": "address"
        },
        {
          "internalType": "address",
          "name": "operator",
          "type": "address"
        }
      ],
      "name": "isApprovedForAll",
      "outputs": [
        {
          "internalType": "bool",
          "name": "",
          "type": "bool"
        }
      ],
      "stateMutability": "view",
      "type": "function"
    },
    {
      "inputs": [
        {
          "internalType": "string",
          "name": "name",
          "type": "string"
        },
        {
          "internalType": "string",
          "name": "imageURI",
          "type": "string"
        }
      ],
      "name": "mintIpfsNFT",
      "outputs": [],
      "stateMutability": "nonpayable",
      "type": "function"
    },
    {
      "inputs": [],
      "name": "name",
      "outputs": [
        {
          "internalType": "string",
          "name": "",
          "type": "string"
        }
      ],
      "stateMutability": "view",
      "type": "function"
    },
    {
      "inputs": [
        {
          "internalType": "uint256",
          "name": "tokenId",
          "type": "uint256"
        }
      ],
      "name": "ownerOf",
      "outputs": [
        {
          "internalType": "address",
          "name": "",
          "type": "address"
        }
      ],
      "stateMutability": "view",
      "type": "function"
    },
    {
      "inputs": [
        {
          "internalType": "address",
          "name": "from",
          "type": "address"
        },
        {
          "internalType": "address",
          "name": "to",
          "type": "address"
        },
        {
          "internalType": "uint256",
          "name": "tokenId",
          "type": "uint256"
        }
      ],
      "name": "safeTransferFrom",
      "outputs": [],
      "stateMutability": "nonpayable",
      "type": "function"
    },
    {
      "inputs": [
        {
          "internalType": "address",
          "name": "from",
          "type": "address"
        },
        {
          "internalType": "address",
          "name": "to",
          "type": "address"
        },
        {
          "internalType": "uint256",
          "name": "tokenId",
          "type": "uint256"
        },
        {
          "internalType": "bytes",
          "name": "data",
          "type": "bytes"
        }
      ],
      "name": "safeTransferFrom",
      "outputs": [],
      "stateMutability": "nonpayable",
      "type": "function"
    },
    {
      "inputs": [
        {
          "internalType": "address",
          "name": "operator",
          "type": "address"
        },
        {
          "internalType": "bool",
          "name": "approved",
          "type": "bool"
        }
      ],
      "name": "setApprovalForAll",
      "outputs": [],
      "stateMutability": "nonpayable",
      "type": "function"
    },
    {
      "inputs": [
        {
          "internalType": "bytes4",
          "name": "interfaceId",
          "type": "bytes4"
        }
      ],
      "name": "supportsInterface",
      "outputs": [
        {
          "internalType": "bool",
          "name": "",
          "type": "bool"
        }
      ],
      "stateMutability": "view",
      "type": "function"
    },
    {
      "inputs": [],
      "name": "symbol",
      "outputs": [
        {
          "internalType": "string",
          "name": "",
          "type": "string"
        }
      ],
      "stateMutability": "view",
      "type": "function"
    },
    {
      "inputs": [
        {
          "internalType": "uint256",
          "name": "_tokenId",
          "type": "uint256"
        }
      ],
      "name": "tokenURI",
      "outputs": [
        {
          "internalType": "string",
          "name": "",
          "type": "string"
        }
      ],
      "stateMutability": "view",
      "type": "function"
    },
    {
      "inputs": [
        {
          "internalType": "address",
          "name": "from",
          "type": "address"
        },
        {
          "internalType": "address",
          "name": "to",
          "type": "address"
        },
        {
          "internalType": "uint256",
          "name": "tokenId",
          "type": "uint256"
        }
      ],
      "name": "transferFrom",
      "outputs": [],
      "stateMutability": "nonpayable",
      "type": "function"
    }
  ],
  "bytecode": "0x60806040523480156200001157600080fd5b506040518060400160405280600381526020017f4e465400000000000000000000000000000000000000000000000000000000008152506040518060400160405280600381526020017f6e66740000000000000000000000000000000000000000000000000000000000815250816000908051906020019062000096929190620001cf565b508060019080519060200190620000af929190620001cf565b505050620000fd6040518060400160405280601881526020017f54686973206973206d79204e465420636f6e74726163742e00000000000000008152506200010360201b62000a981760201c565b620003ac565b620001a3816040516024016200011a919062000323565b6040516020818303038152906040527f41304fac000000000000000000000000000000000000000000000000000000007bffffffffffffffffffffffffffffffffffffffffffffffffffffffff19166020820180517bffffffffffffffffffffffffffffffffffffffffffffffffffffffff8381831617835250505050620001a660201b60201c565b50565b60008151905060006a636f6e736f6c652e6c6f679050602083016000808483855afa5050505050565b828054620001dd9062000376565b90600052602060002090601f0160209004810192826200020157600085556200024d565b82601f106200021c57805160ff19168380011785556200024d565b828001600101855582156200024d579182015b828111156200024c5782518255916020019190600101906200022f565b5b5090506200025c919062000260565b5090565b5b808211156200027b57600081600090555060010162000261565b5090565b600081519050919050565b600082825260208201905092915050565b60005b83811015620002bb5780820151818401526020810190506200029e565b83811115620002cb576000848401525b50505050565b6000601f19601f8301169050919050565b6000620002ef826200027f565b620002fb81856200028a565b93506200030d8185602086016200029b565b6200031881620002d1565b840191505092915050565b600060208201905081810360008301526200033f8184620002e2565b905092915050565b7f4e487b7100000000000000000000000000000000000000000000000000000000600052602260045260246000fd5b600060028204905060018216806200038f57607f821691505b60208210811415620003a657620003a562000347565b5b50919050565b612f3280620003bc6000396000f3fe608060405234801561001057600080fd5b50600436106100ea5760003560e01c806370a082311161008c578063b88d4fde11610066578063b88d4fde1461025b578063c87b56dd14610277578063e985e9c5146102a7578063eb00195d146102d7576100ea565b806370a08231146101f157806395d89b4114610221578063a22cb4651461023f576100ea565b8063095ea7b3116100c8578063095ea7b31461016d57806323b872dd1461018957806342842e0e146101a55780636352211e146101c1576100ea565b806301ffc9a7146100ef57806306fdde031461011f578063081812fc1461013d575b600080fd5b61010960048036038101906101049190611c98565b6102f3565b6040516101169190611ce0565b60405180910390f35b6101276103d5565b6040516101349190611d94565b60405180910390f35b61015760048036038101906101529190611dec565b610467565b6040516101649190611e5a565b60405180910390f35b61018760048036038101906101829190611ea1565b6104ad565b005b6101a3600480360381019061019e9190611ee1565b6105c5565b005b6101bf60048036038101906101ba9190611ee1565b610625565b005b6101db60048036038101906101d69190611dec565b610645565b6040516101e89190611e5a565b60405180910390f35b61020b60048036038101906102069190611f34565b6106cc565b6040516102189190611f70565b60405180910390f35b610229610784565b6040516102369190611d94565b60405180910390f35b61025960048036038101906102549190611fb7565b610816565b005b6102756004803603810190610270919061212c565b61082c565b005b610291600480360381019061028c9190611dec565b61088e565b60405161029e9190611d94565b60405180910390f35b6102c160048036038101906102bc91906121af565b61093e565b6040516102ce9190611ce0565b60405180910390f35b6102f160048036038101906102ec9190612290565b6109d2565b005b60007f80ac58cd000000000000000000000000000000000000000000000000000000007bffffffffffffffffffffffffffffffffffffffffffffffffffffffff1916827bffffffffffffffffffffffffffffffffffffffffffffffffffffffff191614806103be57507f5b5e139f000000000000000000000000000000000000000000000000000000007bffffffffffffffffffffffffffffffffffffffffffffffffffffffff1916827bffffffffffffffffffffffffffffffffffffffffffffffffffffffff1916145b806103ce57506103cd82610b31565b5b9050919050565b6060600080546103e490612337565b80601f016020809104026020016040519081016040528092919081815260200182805461041090612337565b801561045d5780601f106104325761010080835404028352916020019161045d565b820191906000526020600020905b81548152906001019060200180831161044057829003601f168201915b5050505050905090565b600061047282610b9b565b6004600083815260200190815260200160002060009054906101000a900473ffffffffffffffffffffffffffffffffffffffff169050919050565b60006104b882610645565b90508073ffffffffffffffffffffffffffffffffffffffff168373ffffffffffffffffffffffffffffffffffffffff161415610529576040517f08c379a0000000000000000000000000000000000000000000000000000000008152600401610520906123db565b60405180910390fd5b8073ffffffffffffffffffffffffffffffffffffffff16610548610be6565b73ffffffffffffffffffffffffffffffffffffffff161480610577575061057681610571610be6565b61093e565b5b6105b6576040517f08c379a00000000000000000000000000000000000000000000000000000000081526004016105ad9061246d565b60405180910390fd5b6105c08383610bee565b505050565b6105d66105d0610be6565b82610ca7565b610615576040517f08c379a000000000000000000000000000000000000000000000000000000000815260040161060c906124ff565b60405180910390fd5b610620838383610d3c565b505050565b6106408383836040518060200160405280600081525061082c565b505050565b60008061065183611036565b9050600073ffffffffffffffffffffffffffffffffffffffff168173ffffffffffffffffffffffffffffffffffffffff1614156106c3576040517f08c379a00000000000000000000000000000000000000000000000000000000081526004016106ba9061256b565b60405180910390fd5b80915050919050565b60008073ffffffffffffffffffffffffffffffffffffffff168273ffffffffffffffffffffffffffffffffffffffff16141561073d576040517f08c379a0000000000000000000000000000000000000000000000000000000008152600401610734906125fd565b60405180910390fd5b600360008373ffffffffffffffffffffffffffffffffffffffff1673ffffffffffffffffffffffffffffffffffffffff168152602001908152602001600020549050919050565b60606001805461079390612337565b80601f01602080910402602001604051908101604052809291908181526020018280546107bf90612337565b801561080c5780601f106107e15761010080835404028352916020019161080c565b820191906000526020600020905b8154815290600101906020018083116107ef57829003601f168201915b5050505050905090565b610828610821610be6565b8383611073565b5050565b61083d610837610be6565b83610ca7565b61087c576040517f08c379a0000000000000000000000000000000000000000000000000000000008152600401610873906124ff565b60405180910390fd5b610888848484846111e0565b50505050565b6060600061090e600684815481106108a9576108a861261d565b5b90600052602060002090600202016000016108c38561123c565b600686815481106108d7576108d661261d565b5b90600052602060002090600202016001016040516020016108fa93929190612872565b604051602081830303815290604052611314565b9050600081604051602001610923919061291b565b60405160208183030381529060405290508092505050919050565b6000600560008473ffffffffffffffffffffffffffffffffffffffff1673ffffffffffffffffffffffffffffffffffffffff16815260200190815260200160002060008373ffffffffffffffffffffffffffffffffffffffff1673ffffffffffffffffffffffffffffffffffffffff16815260200190815260200160002060009054906101000a900460ff16905092915050565b60006109de60076114ac565b90506109ea33826114ba565b600660405180604001604052808581526020018481525090806001815401808255809150506001900390600052602060002090600202016000909190919091506000820151816000019080519060200190610a46929190611b89565b506020820151816001019080519060200190610a63929190611b89565b505050610a89604051806060016040528060258152602001612e986025913982336114d8565b610a936007611577565b505050565b610b2e81604051602401610aac9190611d94565b6040516020818303038152906040527f41304fac000000000000000000000000000000000000000000000000000000007bffffffffffffffffffffffffffffffffffffffffffffffffffffffff19166020820180517bffffffffffffffffffffffffffffffffffffffffffffffffffffffff838183161783525050505061158d565b50565b60007f01ffc9a7000000000000000000000000000000000000000000000000000000007bffffffffffffffffffffffffffffffffffffffffffffffffffffffff1916827bffffffffffffffffffffffffffffffffffffffffffffffffffffffff1916149050919050565b610ba4816115b6565b610be3576040517f08c379a0000000000000000000000000000000000000000000000000000000008152600401610bda9061256b565b60405180910390fd5b50565b600033905090565b816004600083815260200190815260200160002060006101000a81548173ffffffffffffffffffffffffffffffffffffffff021916908373ffffffffffffffffffffffffffffffffffffffff160217905550808273ffffffffffffffffffffffffffffffffffffffff16610c6183610645565b73ffffffffffffffffffffffffffffffffffffffff167f8c5be1e5ebec7d5bd14f71427d1e84f3dd0314c0f7b2291e5b200ac8c7c3b92560405160405180910390a45050565b600080610cb383610645565b90508073ffffffffffffffffffffffffffffffffffffffff168473ffffffffffffffffffffffffffffffffffffffff161480610cf55750610cf4818561093e565b5b80610d3357508373ffffffffffffffffffffffffffffffffffffffff16610d1b84610467565b73ffffffffffffffffffffffffffffffffffffffff16145b91505092915050565b8273ffffffffffffffffffffffffffffffffffffffff16610d5c82610645565b73ffffffffffffffffffffffffffffffffffffffff1614610db2576040517f08c379a0000000000000000000000000000000000000000000000000000000008152600401610da9906129af565b60405180910390fd5b600073ffffffffffffffffffffffffffffffffffffffff168273ffffffffffffffffffffffffffffffffffffffff161415610e22576040517f08c379a0000000000000000000000000000000000000000000000000000000008152600401610e1990612a41565b60405180910390fd5b610e2f83838360016115f7565b8273ffffffffffffffffffffffffffffffffffffffff16610e4f82610645565b73ffffffffffffffffffffffffffffffffffffffff1614610ea5576040517f08c379a0000000000000000000000000000000000000000000000000000000008152600401610e9c906129af565b60405180910390fd5b6004600082815260200190815260200160002060006101000a81549073ffffffffffffffffffffffffffffffffffffffff02191690556001600360008573ffffffffffffffffffffffffffffffffffffffff1673ffffffffffffffffffffffffffffffffffffffff168152602001908152602001600020600082825403925050819055506001600360008473ffffffffffffffffffffffffffffffffffffffff1673ffffffffffffffffffffffffffffffffffffffff16815260200190815260200160002060008282540192505081905550816002600083815260200190815260200160002060006101000a81548173ffffffffffffffffffffffffffffffffffffffff021916908373ffffffffffffffffffffffffffffffffffffffff160217905550808273ffffffffffffffffffffffffffffffffffffffff168473ffffffffffffffffffffffffffffffffffffffff167fddf252ad1be2c89b69c2b068fc378daa952ba7f163c4a11628f55a4df523b3ef60405160405180910390a461103183838360016115fd565b505050565b60006002600083815260200190815260200160002060009054906101000a900473ffffffffffffffffffffffffffffffffffffffff169050919050565b8173ffffffffffffffffffffffffffffffffffffffff168373ffffffffffffffffffffffffffffffffffffffff1614156110e2576040517f08c379a00000000000000000000000000000000000000000000000000000000081526004016110d990612aad565b60405180910390fd5b80600560008573ffffffffffffffffffffffffffffffffffffffff1673ffffffffffffffffffffffffffffffffffffffff16815260200190815260200160002060008473ffffffffffffffffffffffffffffffffffffffff1673ffffffffffffffffffffffffffffffffffffffff16815260200190815260200160002060006101000a81548160ff0219169083151502179055508173ffffffffffffffffffffffffffffffffffffffff168373ffffffffffffffffffffffffffffffffffffffff167f17307eab39ab6107e8899845ad3d59bd9653f200f220920489ca2b5937696c31836040516111d39190611ce0565b60405180910390a3505050565b6111eb848484610d3c565b6111f784848484611603565b611236576040517f08c379a000000000000000000000000000000000000000000000000000000000815260040161122d90612b3f565b60405180910390fd5b50505050565b60606000600161124b8461179a565b01905060008167ffffffffffffffff81111561126a57611269612001565b5b6040519080825280601f01601f19166020018201604052801561129c5781602001600182028036833780820191505090505b509050600082602001820190505b600115611309578080600190039150507f3031323334353637383961626364656600000000000000000000000000000000600a86061a8153600a85816112f3576112f2612b5f565b5b049450600085141561130457611309565b6112aa565b819350505050919050565b6060600082519050600081141561133d57604051806020016040528060008152509150506114a7565b6000600360028361134e9190612bbd565b6113589190612c13565b60046113649190612c44565b905060006020826113759190612bbd565b67ffffffffffffffff81111561138e5761138d612001565b5b6040519080825280601f01601f1916602001820160405280156113c05781602001600182028036833780820191505090505b5090506000604051806060016040528060408152602001612ebd604091399050600181016020830160005b868110156114645760038101905062ffffff818a015116603f8160121c168401518060081b905060ff603f83600c1c1686015116810190508060081b905060ff603f8360061c1686015116810190508060081b905060ff603f831686015116810190508060e01b905080845260048401935050506113eb565b50600386066001811461147e576002811461148e57611499565b613d3d60f01b6002830352611499565b603d60f81b60018303525b508484525050819450505050505b919050565b600081600001549050919050565b6114d48282604051806020016040528060008152506118ed565b5050565b6115728383836040516024016114f093929190612c9e565b6040516020818303038152906040527f1c7ec448000000000000000000000000000000000000000000000000000000007bffffffffffffffffffffffffffffffffffffffffffffffffffffffff19166020820180517bffffffffffffffffffffffffffffffffffffffffffffffffffffffff838183161783525050505061158d565b505050565b6001816000016000828254019250508190555050565b60008151905060006a636f6e736f6c652e6c6f679050602083016000808483855afa5050505050565b60008073ffffffffffffffffffffffffffffffffffffffff166115d883611036565b73ffffffffffffffffffffffffffffffffffffffff1614159050919050565b50505050565b50505050565b60006116248473ffffffffffffffffffffffffffffffffffffffff16611948565b1561178d578373ffffffffffffffffffffffffffffffffffffffff1663150b7a0261164d610be6565b8786866040518563ffffffff1660e01b815260040161166f9493929190612d31565b602060405180830381600087803b15801561168957600080fd5b505af19250505080156116ba57506040513d601f19601f820116820180604052508101906116b79190612d92565b60015b61173d573d80600081146116ea576040519150601f19603f3d011682016040523d82523d6000602084013e6116ef565b606091505b50600081511415611735576040517f08c379a000000000000000000000000000000000000000000000000000000000815260040161172c90612b3f565b60405180910390fd5b805181602001fd5b63150b7a0260e01b7bffffffffffffffffffffffffffffffffffffffffffffffffffffffff1916817bffffffffffffffffffffffffffffffffffffffffffffffffffffffff191614915050611792565b600190505b949350505050565b600080600090507a184f03e93ff9f4daa797ed6e38ed64bf6a1f01000000000000000083106117f8577a184f03e93ff9f4daa797ed6e38ed64bf6a1f01000000000000000083816117ee576117ed612b5f565b5b0492506040810190505b6d04ee2d6d415b85acef81000000008310611835576d04ee2d6d415b85acef8100000000838161182b5761182a612b5f565b5b0492506020810190505b662386f26fc10000831061186457662386f26fc10000838161185a57611859612b5f565b5b0492506010810190505b6305f5e100831061188d576305f5e100838161188357611882612b5f565b5b0492506008810190505b61271083106118b25761271083816118a8576118a7612b5f565b5b0492506004810190505b606483106118d557606483816118cb576118ca612b5f565b5b0492506002810190505b600a83106118e4576001810190505b80915050919050565b6118f7838361196b565b6119046000848484611603565b611943576040517f08c379a000000000000000000000000000000000000000000000000000000000815260040161193a90612b3f565b60405180910390fd5b505050565b6000808273ffffffffffffffffffffffffffffffffffffffff163b119050919050565b600073ffffffffffffffffffffffffffffffffffffffff168273ffffffffffffffffffffffffffffffffffffffff1614156119db576040517f08c379a00000000000000000000000000000000000000000000000000000000081526004016119d290612e0b565b60405180910390fd5b6119e4816115b6565b15611a24576040517f08c379a0000000000000000000000000000000000000000000000000000000008152600401611a1b90612e77565b60405180910390fd5b611a326000838360016115f7565b611a3b816115b6565b15611a7b576040517f08c379a0000000000000000000000000000000000000000000000000000000008152600401611a7290612e77565b60405180910390fd5b6001600360008473ffffffffffffffffffffffffffffffffffffffff1673ffffffffffffffffffffffffffffffffffffffff16815260200190815260200160002060008282540192505081905550816002600083815260200190815260200160002060006101000a81548173ffffffffffffffffffffffffffffffffffffffff021916908373ffffffffffffffffffffffffffffffffffffffff160217905550808273ffffffffffffffffffffffffffffffffffffffff16600073ffffffffffffffffffffffffffffffffffffffff167fddf252ad1be2c89b69c2b068fc378daa952ba7f163c4a11628f55a4df523b3ef60405160405180910390a4611b856000838360016115fd565b5050565b828054611b9590612337565b90600052602060002090601f016020900481019282611bb75760008555611bfe565b82601f10611bd057805160ff1916838001178555611bfe565b82800160010185558215611bfe579182015b82811115611bfd578251825591602001919060010190611be2565b5b509050611c0b9190611c0f565b5090565b5b80821115611c28576000816000905550600101611c10565b5090565b6000604051905090565b600080fd5b600080fd5b60007fffffffff0000000000000000000000000000000000000000000000000000000082169050919050565b611c7581611c40565b8114611c8057600080fd5b50565b600081359050611c9281611c6c565b92915050565b600060208284031215611cae57611cad611c36565b5b6000611cbc84828501611c83565b91505092915050565b60008115159050919050565b611cda81611cc5565b82525050565b6000602082019050611cf56000830184611cd1565b92915050565b600081519050919050565b600082825260208201905092915050565b60005b83811015611d35578082015181840152602081019050611d1a565b83811115611d44576000848401525b50505050565b6000601f19601f8301169050919050565b6000611d6682611cfb565b611d708185611d06565b9350611d80818560208601611d17565b611d8981611d4a565b840191505092915050565b60006020820190508181036000830152611dae8184611d5b565b905092915050565b6000819050919050565b611dc981611db6565b8114611dd457600080fd5b50565b600081359050611de681611dc0565b92915050565b600060208284031215611e0257611e01611c36565b5b6000611e1084828501611dd7565b91505092915050565b600073ffffffffffffffffffffffffffffffffffffffff82169050919050565b6000611e4482611e19565b9050919050565b611e5481611e39565b82525050565b6000602082019050611e6f6000830184611e4b565b92915050565b611e7e81611e39565b8114611e8957600080fd5b50565b600081359050611e9b81611e75565b92915050565b60008060408385031215611eb857611eb7611c36565b5b6000611ec685828601611e8c565b9250506020611ed785828601611dd7565b9150509250929050565b600080600060608486031215611efa57611ef9611c36565b5b6000611f0886828701611e8c565b9350506020611f1986828701611e8c565b9250506040611f2a86828701611dd7565b9150509250925092565b600060208284031215611f4a57611f49611c36565b5b6000611f5884828501611e8c565b91505092915050565b611f6a81611db6565b82525050565b6000602082019050611f856000830184611f61565b92915050565b611f9481611cc5565b8114611f9f57600080fd5b50565b600081359050611fb181611f8b565b92915050565b60008060408385031215611fce57611fcd611c36565b5b6000611fdc85828601611e8c565b9250506020611fed85828601611fa2565b9150509250929050565b600080fd5b600080fd5b7f4e487b7100000000000000000000000000000000000000000000000000000000600052604160045260246000fd5b61203982611d4a565b810181811067ffffffffffffffff8211171561205857612057612001565b5b80604052505050565b600061206b611c2c565b90506120778282612030565b919050565b600067ffffffffffffffff82111561209757612096612001565b5b6120a082611d4a565b9050602081019050919050565b82818337600083830152505050565b60006120cf6120ca8461207c565b612061565b9050828152602081018484840111156120eb576120ea611ffc565b5b6120f68482856120ad565b509392505050565b600082601f83011261211357612112611ff7565b5b81356121238482602086016120bc565b91505092915050565b6000806000806080858703121561214657612145611c36565b5b600061215487828801611e8c565b945050602061216587828801611e8c565b935050604061217687828801611dd7565b925050606085013567ffffffffffffffff81111561219757612196611c3b565b5b6121a3878288016120fe565b91505092959194509250565b600080604083850312156121c6576121c5611c36565b5b60006121d485828601611e8c565b92505060206121e585828601611e8c565b9150509250929050565b600067ffffffffffffffff82111561220a57612209612001565b5b61221382611d4a565b9050602081019050919050565b600061223361222e846121ef565b612061565b90508281526020810184848401111561224f5761224e611ffc565b5b61225a8482856120ad565b509392505050565b600082601f83011261227757612276611ff7565b5b8135612287848260208601612220565b91505092915050565b600080604083850312156122a7576122a6611c36565b5b600083013567ffffffffffffffff8111156122c5576122c4611c3b565b5b6122d185828601612262565b925050602083013567ffffffffffffffff8111156122f2576122f1611c3b565b5b6122fe85828601612262565b9150509250929050565b7f4e487b7100000000000000000000000000000000000000000000000000000000600052602260045260246000fd5b6000600282049050600182168061234f57607f821691505b6020821081141561236357612362612308565b5b50919050565b7f4552433732313a20617070726f76616c20746f2063757272656e74206f776e6560008201527f7200000000000000000000000000000000000000000000000000000000000000602082015250565b60006123c5602183611d06565b91506123d082612369565b604082019050919050565b600060208201905081810360008301526123f4816123b8565b9050919050565b7f4552433732313a20617070726f76652063616c6c6572206973206e6f7420746f60008201527f6b656e206f776e6572206f7220617070726f76656420666f7220616c6c000000602082015250565b6000612457603d83611d06565b9150612462826123fb565b604082019050919050565b600060208201905081810360008301526124868161244a565b9050919050565b7f4552433732313a2063616c6c6572206973206e6f7420746f6b656e206f776e6560008201527f72206f7220617070726f76656400000000000000000000000000000000000000602082015250565b60006124e9602d83611d06565b91506124f48261248d565b604082019050919050565b60006020820190508181036000830152612518816124dc565b9050919050565b7f4552433732313a20696e76616c696420746f6b656e2049440000000000000000600082015250565b6000612555601883611d06565b91506125608261251f565b602082019050919050565b6000602082019050818103600083015261258481612548565b9050919050565b7f4552433732313a2061646472657373207a65726f206973206e6f74206120766160008201527f6c6964206f776e65720000000000000000000000000000000000000000000000602082015250565b60006125e7602983611d06565b91506125f28261258b565b604082019050919050565b60006020820190508181036000830152612616816125da565b9050919050565b7f4e487b7100000000000000000000000000000000000000000000000000000000600052603260045260246000fd5b600081905092915050565b7f7b226e616d65223a202200000000000000000000000000000000000000000000600082015250565b600061268d600a8361264c565b915061269882612657565b600a82019050919050565b60008190508160005260206000209050919050565b600081546126c581612337565b6126cf818661264c565b945060018216600081146126ea57600181146126fb5761272e565b60ff1983168652818601935061272e565b612704856126a3565b60005b8381101561272657815481890152600182019150602081019050612707565b838801955050505b50505092915050565b7f202d2d204e465420233a20000000000000000000000000000000000000000000600082015250565b600061276d600b8361264c565b915061277882612737565b600b82019050919050565b600061278e82611cfb565b612798818561264c565b93506127a8818560208601611d17565b80840191505092915050565b7f222c20226465736372697074696f6e223a2022416e2065706963204e4654222c60008201527f2022696d616765223a2022697066733a2f2f0000000000000000000000000000602082015250565b600061281060328361264c565b915061281b826127b4565b603282019050919050565b7f227d000000000000000000000000000000000000000000000000000000000000600082015250565b600061285c60028361264c565b915061286782612826565b600282019050919050565b600061287d82612680565b915061288982866126b8565b915061289482612760565b91506128a08285612783565b91506128ab82612803565b91506128b782846126b8565b91506128c28261284f565b9150819050949350505050565b7f646174613a6170706c69636174696f6e2f6a736f6e3b6261736536342c000000600082015250565b6000612905601d8361264c565b9150612910826128cf565b601d82019050919050565b6000612926826128f8565b91506129328284612783565b915081905092915050565b7f4552433732313a207472616e736665722066726f6d20696e636f72726563742060008201527f6f776e6572000000000000000000000000000000000000000000000000000000602082015250565b6000612999602583611d06565b91506129a48261293d565b604082019050919050565b600060208201905081810360008301526129c88161298c565b9050919050565b7f4552433732313a207472616e7366657220746f20746865207a65726f2061646460008201527f7265737300000000000000000000000000000000000000000000000000000000602082015250565b6000612a2b602483611d06565b9150612a36826129cf565b604082019050919050565b60006020820190508181036000830152612a5a81612a1e565b9050919050565b7f4552433732313a20617070726f766520746f2063616c6c657200000000000000600082015250565b6000612a97601983611d06565b9150612aa282612a61565b602082019050919050565b60006020820190508181036000830152612ac681612a8a565b9050919050565b7f4552433732313a207472616e7366657220746f206e6f6e20455243373231526560008201527f63656976657220696d706c656d656e7465720000000000000000000000000000602082015250565b6000612b29603283611d06565b9150612b3482612acd565b604082019050919050565b60006020820190508181036000830152612b5881612b1c565b9050919050565b7f4e487b7100000000000000000000000000000000000000000000000000000000600052601260045260246000fd5b7f4e487b7100000000000000000000000000000000000000000000000000000000600052601160045260246000fd5b6000612bc882611db6565b9150612bd383611db6565b9250827fffffffffffffffffffffffffffffffffffffffffffffffffffffffffffffffff03821115612c0857612c07612b8e565b5b828201905092915050565b6000612c1e82611db6565b9150612c2983611db6565b925082612c3957612c38612b5f565b5b828204905092915050565b6000612c4f82611db6565b9150612c5a83611db6565b9250817fffffffffffffffffffffffffffffffffffffffffffffffffffffffffffffffff0483118215151615612c9357612c92612b8e565b5b828202905092915050565b60006060820190508181036000830152612cb88186611d5b565b9050612cc76020830185611f61565b612cd46040830184611e4b565b949350505050565b600081519050919050565b600082825260208201905092915050565b6000612d0382612cdc565b612d0d8185612ce7565b9350612d1d818560208601611d17565b612d2681611d4a565b840191505092915050565b6000608082019050612d466000830187611e4b565b612d536020830186611e4b565b612d606040830185611f61565b8181036060830152612d728184612cf8565b905095945050505050565b600081519050612d8c81611c6c565b92915050565b600060208284031215612da857612da7611c36565b5b6000612db684828501612d7d565b91505092915050565b7f4552433732313a206d696e7420746f20746865207a65726f2061646472657373600082015250565b6000612df5602083611d06565b9150612e0082612dbf565b602082019050919050565b60006020820190508181036000830152612e2481612de8565b9050919050565b7f4552433732313a20746f6b656e20616c7265616479206d696e74656400000000600082015250565b6000612e61601c83611d06565b9150612e6c82612e2b565b602082019050919050565b60006020820190508181036000830152612e9081612e54565b905091905056fe416e204e465420772f20494420257320686173206265656e206d696e74656420746f2025734142434445464748494a4b4c4d4e4f505152535455565758595a6162636465666768696a6b6c6d6e6f707172737475767778797a303132333435363738392b2fa2646970667358221220be7791cde46ab7fabb1bf5906466561d71d522055d1019df744d8a32490d4daa64736f6c63430008090033",
  "linkReferences": {},
  "deployedLinkReferences": {}
}